:020000040800F2
:10000000080C002001010008090100080B0100088C
:100010000D0100080F010008110100080000000098
:1000200000000000000000000000000013010008B4
:100030001501000800000000170100081901000860
:100040001B0100081B0100081B0100081B01000820
:100050001B0100081B0100081B0100081B01000810
:100060001B0100081B0100081B0100081B01000800
:100070001B0100081B0100081B0100081B010008F0
:100080001B0100081B0100081B0100081B010008E0
:100090001B0100081B0100081B0100081B010008D0
:1000A0001B0100081B0100081B0100082144000877
:1000B0001B01000829440008014500081B01000835
:1000C0001B0100081B0100081B0100081B010008A0
:1000D0001B010008DD4B00081B0100081B01000884
:1000E0001B0100081B0100081B010008DFF80CD0F1
:1000F00000F004FC00480047FD580008080C0020F0
:100100000648804706480047FEE7FEE7FEE7FEE7B1
:10011000FEE7FEE7FEE7FEE7FEE7FEE781410008B7
:10012000ED000008F0B480EA0102D40F4200B2EB07
:10013000410F02D20246084611464A0042D0C30D82
:10014000DDB2C1F3C752AD1A202D35DAC1F3160165
:1001500041F4000204B15242C5F1200602FA06F150
:100160002A411044B3EBD05F23D0C4B1012DA0EBE2
:10017000C35009DCF0BC4FF0004202EAC352DBB2CC
:1001800000F5000000F058BA400000F1807000EB6C
:10019000C350A0F1807040EAD170490009E04908DD
:1001A00041EAC071A0EBC35000F50000400800EB2D
:1001B000C350F0BC00F037BA6142012202EB4101AA
:1001C000001BF6E7F0BC704781F00041AAE780F021
:1001D0000040A7E780EA010210B502F000434000AA
:1001E00022D04A001FD0010E01EB1261C0F356006D
:1001F000C2F3560240F4000042F40002A0FB0220C9
:1002000000047F39140400D0401C50EA124001D48D
:100210004000491EC2B20C0604EBD010401C40083E
:10022000802A02D003E0002010BD20F00100002948
:1002300000DA0020184310BD30B480EA010202F059
:10024000004530F0004221F0004013D090B1C30DC2
:10025000D40DC2F31601C0F31600E41A41F40001F4
:1002600040F400027D34914201D3641C00E0490057
:10027000002C02DA30BC002070474FF4000000234D
:10028000914201D3891A034340084FEA4101F7D153
:1002900051B1914202D14FF0004105E002D24FF03E
:1002A000010101E06FF0010103EBC450284430BCB0
:1002B00000F0B9B92DE9FE4F804681EA0300C00F76
:1002C0000C46009021F0004123F00045B8EB0200FD
:1002D000A94105D24046214690461C460B4602469F
:1002E00023F00040104347D0270DC7F30A00C3F3A3
:1002F0000A510290401A019040286BDAC3F31300B0
:1003000040F4801B0098924620B10023D2EB030AF0
:1003100063EB0B0B01985946C0F14002504600F0C8
:1003200061F906460D4650465946019A00F069F9B2
:1003300010EB08006141002487EA115284EAE77358
:100340001A4340D0009A62B3019A012A4FEA075239
:1003500015DC001B61EB02014FF0004202EA07527C
:10036000CDE90042001C41F5801132462B4600F0D9
:10037000A0F903B0BDE8F08F40462146F9E7001B25
:1003800061EB0201001C41F5801300185B4120184D
:10039000A2F5001747EB030140EAD570B6196D418D
:1003A00011E06D084FEA360645EAC0754FEA07527C
:1003B000001B61EB0201001C41F5801149084FEA66
:1003C00030000019514132462B4603B0BDE8F04FD2
:1003D00000F060B90098012240000023D0EB020237
:1003E00063EBE073009821464FEAE074B8EB00003D
:1003F00061EB0401E9E783F000435BE781F0004132
:1004000058E72DE9FE4F81EA030404F0004421F08F
:10041000004100944FF0000B23F0004350EA010428
:100420005ED052EA03045BD0C3F30A54C1F30A5509
:100430002C44A4F2F3340194A0FB0254C1F3130141
:1004400041F48011C3F3130343F4801301FB02440E
:1004500000FB034E840A970A44EA815447EA835713
:10046000A4FB076802958D0A05FB07854FEA932CCC
:1004700004FB0C542705029D4FEA065847EA16373D
:10048000B5EB08056EEB070C870E920E47EA811755
:1004900042EA8312A7FB0201B6EB0B0164EB0004F6
:1004A0002B0D43EA0C335E1844EB1C50DA465146E0
:1004B000E7FB0201C5F313044FEA0B3343EA14537D
:1004C0004FEA0432019C43EA0603A4F10C040294AF
:1004D000009CCDE900B400F0ECF803B0BDE8F08F6B
:1004E00000200146F9E7C10F80EAE0700844CA071E
:1004F0009623002100F0A0B896230022114600F0B8
:100500009BB800F0004220F00040C10DC0F316007F
:1005100040F400007F2901DA00207047962903DCAF
:10052000C1F19601C84001E096398840002AF4D014
:100530004042704720F00040C10DC0F3160040F467
:1005400000007F2901DA00207047962903DCC1F101
:100550009601C840704796398840704700F00042C5
:1005600030F000400AD0C10D01F56071C0F31600F3
:1005700042EA0151C208400711437047002001467A
:10058000704701F0004330B421F0004150EA01020D
:1005900006D00A0DA2F56072C1F31301002A02DC35
:1005A00030BC00207047440F44EAC104C100E01889
:1005B00030BC00EBC25000F036B80000002801DB70
:1005C000C0F10040002901DBC1F1004181427047C8
:1005D000002801DBC0F10040002901DBC1F100412E
:1005E00088427047202A04DB203A00FA02F10020FA
:1005F00070479140C2F1200320FA03F31943904061
:100600007047202A06DBCB17203A41FA02F043EA72
:10061000E07306E041FA02F3D040C2F120029140BB
:100620000843194670470029A8BF7047401C49007D
:1006300008BF20F00100704710B4B0FA80FC00FA47
:100640000CF050EA010404BF10BC704749B1CCF172
:10065000200421FA04F411FA0CF118BF01212143FE
:100660000843A3EB0C01CB1D4FEA00614FEA1020B9
:1006700042BF002010BC704700EBC350104400295B
:10068000A4BF10BC7047401C490008BF20F0010007
:1006900010BC704710B5141E73F1000408DA401C3A
:1006A00041F1000192185B411A4301D120F0010091
:1006B00010BD2DE9F04D92469B4611B1B1FA81F281
:1006C00002E0B0FA80F220329046FFF78BFF04463A
:1006D0000F4640EA0A0041EA0B0153465A460843D6
:1006E00013D0114653EA010019D0C8F14002504618
:1006F00000F016F905460E46504659464246FFF7A9
:1007000071FF084305D0012004E020463946BDE8CA
:10071000F08D0020054346EAE0762C4337430A98E3
:100720006305E40AA0EB08000022FD0A44EA4754EE
:100730000A3002D500200146E9E701051019694198
:10074000DDE9084500196941BDE8F04DA2E72DE952
:10075000F04D81EA030404F0004B21F000451446FB
:100760004FF0000A23F0004150EA050220D054EA7D
:1007700001021DD0C5F30A570246C5F31303C1F3A6
:100780001300C1F30A5640F4801543F48013A7EB1D
:100790000608101BD64608F2FD3873EB050002D39D
:1007A00008F1010801E092185B41B8F1000F03DA8B
:1007B00000200146BDE8F08D00204FF48011064670
:1007C00084460EE0171B73EB050705D3121B63EB82
:1007D000050306434CEA010C49084FEA3000921821
:1007E0005B4150EA0107EDD152EA030012D082EAE0
:1007F000040083EA0501084305D0101BAB4106D273
:100800000122002306E000224FF0004302E06FF0D7
:10081000010253101AEB06004CEB085110EB0A00D2
:1008200041EB0B01BDE8F04DFFF734BF70B521F08F
:10083000004303430CD0C1F30A550024D5EB040553
:1008400064EB0403D617AD1AB34102DB0020014666
:1008500070BD201841EB025170BD2DE9F04D002311
:100860001A461B1A8A4103DB00200146BDE8F08DC1
:10087000C1F30A52C1F3130141F480154FF0000B8C
:10088000D10702D100186D41521E0027044640F2E4
:10089000FF11384601EB620A3E46804602460020C0
:1008A0004FF4801100F03CF8C2197141BB1846EBBF
:1008B0000100B4EB030C75EB000C04D3E41A65EBF8
:1008C000000517460E46241908F101006D418046C7
:1008D0003428E3DDF91946EB0600091BA84103D2D1
:1008E0004FF0FF32134601E0002213461BEB0700D6
:1008F00046EB0A51BDE8F04DFFF7CCBE064C074D64
:1009000006E0E06840F0010394E8070098471034DF
:10091000AC42F6D3FFF7EEFB585F0008785F0008A3
:10092000202A04DB203A21FA02F00021704721FA44
:1009300002F3D040C2F120029140084319467047AB
:1009400070B58C1810F8015B15F0070301D110F891
:10095000013B2A1106D110F8012B03E010F8016BBE
:1009600001F8016B5B1EF9D12B0705D40023521E41
:100970000DD401F8013BFAE710F8013BCB1A921CA9
:1009800003E013F8015B01F8015B521EF9D5A142A7
:10099000D8D3002070BD00002DE9F04705460C4675
:1009A000B5F90010B4F90020881AFFF79CFD8146C4
:1009B000254801684846FFF70DFC0746B4F90000DA
:1009C000FFF791FD80463946FFF7ACFB0646FFF77F
:1009D00098FD00B22080B5F90210B4F90220881AFF
:1009E000FFF781FD8146184801684846FFF7F2FB92
:1009F0000746B4F90200FFF776FD80463946FFF757
:100A000091FB0646FFF77DFD00B26080B5F904104A
:100A1000B4F90420881AFFF766FD81460A48016888
:100A20004846FFF7D7FB0746B4F90400FFF75BFD24
:100A300080463946FFF776FB0646FFF762FD00B2B7
:100A4000A080BDE8F0870000E40000200FB58BB067
:100A5000FE48B0F90C00192190FBF1F0233800B2E8
:100A6000FB490880F948B0F90800A0F2DC502821C1
:100A700090FBF1F000B2F7490880F448B0F90A00A1
:100A8000A0F2DC50282190FBF1F000B2F24908807E
:100A9000F048B0F90000FFF726FD04900D98B0F97A
:100AA0000000A0F5B960EA49B1F9001090FBF1F03F
:100AB0000190FFF718FD02900B9800680146019025
:100AC0000298FFF784FB03900499FFF72BFB079034
:100AD000E148B0F90000FFF706FD04900D98B0F969
:100AE0000200A0F2D450DA49B1F9001090FBF1F005
:100AF0000190FFF7F8FC02900B98406801460190C6
:100B00000298FFF70FFB03900499FFF70BFB069089
:100B10000D98B0F90600A0F2D950CD49B1F90010F6
:100B200090FBF1F00390FFF7DEFC04900B988068D7
:100B3000014603900498FFF7F5FA0590C748B0F90D
:100B4000000041F65831884205DB0120C449087095
:100B50000021C4480170089801460490C24800680A
:100B6000FFF7E0FAC0490860C049BF480068FFF7D6
:100B70002FFD02D2BD48BC490860BD49BA48006893
:100B8000FFF71CFD02D2BA48B7490860B9480068AF
:100B900004900799FFF71EFBB64948600C98B0F91E
:100BA00002000290FFF79FFC0490B248006980F0B9
:100BB000004003900499FFF70DFBAE494861099886
:100BC00001460490AC480068FFF7ACFAAA490860F7
:100BD000A649A9480068FFF7FBFC02D2A348A64932
:100BE0000860A349A4480068FFF7E8FC02D2A048C7
:100BF000A1490860A148006804900699FFF7EAFA45
:100C00009E4948600C98B0F900000290FFF76BFC19
:100C100004909A48006980F0004003900499FFF71F
:100C2000D9FA964948610B98006803900B980068C0
:100C300002900399FFF7CEFA4FF07E510490FFF730
:100C4000BDFC3FD20B98406803900B98406802901F
:100C50000399FFF7BFFA4FF07E510490FFF7AEFC07
:100C600030D20898039001460290FFF7B3FA844906
:100C70000490FFF7A3FC25D2099803900146029047
:100C8000FFF7A8FA7E490490FFF798FC1AD20D9856
:100C9000B0F90400B0F5966F14DD764880680490D2
:100CA000714801680498FFF795FA7249C860734863
:100CB00080680490704801680498FFF78BFA6F49C8
:100CC000C86004E000206B49C8606C49C8600D989A
:100CD000B0F90600B0F5AF6F05DB0D98B0F906006E
:100CE000B0F5C86F0ADD0C9881880D98C088A0F215
:100CF000DC5001EB400001B20C9881800C98B0F9F7
:100D000004000190FFF7EFFB5E490290FFF762FAE3
:100D10005D490390FFF75EFA04905C48016804980F
:100D2000FFF700FA594908605948006804900846DE
:100D300001680498FFF74EFA554948600C98B0F9DD
:100D400004000390FFF7CFFB04905148006901466F
:100D500003900498FFF73EFA4D4948610D98B0F9A9
:100D60000400B0F5966F07DA0020434908600021BF
:100D70003D480160454801603E48C06803903D48D9
:100D8000406802900399FFF7CDF904903948406913
:100D9000014603900498FFF7C5F93649C861374802
:100DA000C06803903548406802900399FFF7BAF98C
:100DB000049032484069014603900498FFF7B2F965
:100DC0002E49C8613248C06803903148406802909B
:100DD0000399FFF7A7F904902D4840690146039055
:100DE0000498FFF79FF92A49C8612248C069049016
:100DF000FFF787FB00B2274908802048C0690490AC
:100E0000FFF77FFB00B2244908802148C0690490A5
:100E1000FFF777FB00B2214908800D98B0F9040074
:100E200040F2BC71884201DD0D9881800748C0897D
:100E3000012803D00548C089032802D101201849A0
:100E400008600248C08902282FD02BE0B00700209C
:100E5000C8010020B6010020B80100205001002088
:100E6000DA010020DB0100209001002000007A441C
:100E700000007AC44404002094010020640400208F
:100E8000000010428DC1793D6F12033B9801002094
:100E900084040020C2010020C4010020C6010020FB
:100EA000CC010020FE48C08910B90020FD4908602F
:100EB000FC48008801B2FA4801820D98B0F904009C
:100EC000B0F5966F08DBF8480078012804D10020BF
:100ED000F6490860F4490870F348007801287DD18C
:100EE000F34800780028FAD1F04800680128F6D1CC
:100EF000F04800780028F2D140F20E60EE490880F8
:100F00000846B0F90000A0F57A700090FFF7EBFA00
:100F10000190EA48C069014600900198FFF702F984
:100F20000290E748C069014601900298FFF7FAF87D
:100F30000390E448C069014602900398FFF7F2F875
:100F40000490FFF7DEFA00B2DF490880DA48B0F912
:100F50000000A0F57A700090FFF7C5FA0190D7481D
:100F6000C069014600900198FFF72EF90290D4481D
:100F7000C069014601900298FFF7D4F80390D14868
:100F8000C069014602900398FFF71EF90490FFF72D
:100F9000B8FA01B2CD480180C748B0F90000A0F509
:100FA0007A700090FFF79FFA0190C448C06901462B
:100FB00000900198FFF7B6F80290C148C069014659
:100FC00001900298FFF700F90390BE48C0690146FE
:100FD00002900398FFF7F8F8049000E038E0FFF77C
:100FE00090FA00B2BA490880B348B0F90000A0F501
:100FF0007A700090FFF777FA0190B048C069014617
:1010000000900198FFF7E0F80290AD48C0690146F2
:1010100001900298FFF7D8F80390AA48C0690146EA
:1010200002900398FFF77EF80490FFF76AFA00B287
:10103000A8490880A648B0F900300846B0F9002059
:10104000A248B0F90010A048B0F9000002F0AAF9D7
:101050000D98B0F9041040F27E40814209DC0D98F1
:10106000B0F9060040F27E41884202DC01208F493F
:1010700008600D98B0F9040040F27E41884208DC17
:101080000D98B0F90600B0F5E16F02DB002087494A
:1010900008600D98B0F9020040F22E41884214DC3D
:1010A00080480068012810D101218B480170FA2185
:1010B00085480180FA20854908804FF448718548A9
:1010C000018008468249088052E00D98B0F902007C
:1010D00040F2CE71884211DB7248006801280DD1C0
:1010E0007D4908704FF44870774908807749088037
:1010F000FA20784908807649088039E00D98B0F9DF
:10110000001040F2B270814213DB6648006801288B
:101110000FD171490870FA206B4908804FF448716B
:101120006A48018008466B490880FA2068490880AF
:101130001EE00D98B0F9000040F22E41884214DC08
:1011400058480068012810D10121634801704FF40C
:1011500048715D480180FA205C4908805D4908803B
:101160004FF448715A48018002E000205A49087043
:101170005A4800780A2805DB0021584801700020F1
:10118000554908700D98B0F9040040F24C4188426E
:101190007DDB48480078002879D14F480078002846
:1011A000FAD1424800680028F6D142480078002869
:1011B0006DD10D98B0F90400A0F57A700090FFF79A
:1011C00092F901903D48C069014600900198FEF7F0
:1011D000A9FF02903A48C069014601900298FEF7C3
:1011E000A1FF03903748C069014602900398FEF7BB
:1011F00099FF0490FFF785F900B2334908800D98F4
:10120000B0F90400A0F57A700090FFF76CF9019036
:101210002A48C069014600900198FEF7D5FF029068
:101220002748C069014601900298FEF77BFF0390B2
:101230002448C069014602900398FEF7C5FF049058
:10124000FFF75FF900B2214908800D98B0F904005A
:10125000A0F57A700090FFF746F901901748C06931
:10126000014600900198FEF75DFF02901448C069A6
:10127000014601900298FEF7A7FF03901148C0694C
:10128000014602900398FEF79FFF049000E05EE0A5
:10129000FFF737F900B20E4908800D9820E00000F2
:1012A000B0070020CC010020DA010020D40100208A
:1012B000DB010020EA010020D001002044040020CE
:1012C0006404002084040020BA010020BC01002036
:1012D000C0010020BE010020D8010020D90100205B
:1012E000B0F90400A0F57A700090FFF7FCF80190C7
:1012F0003248C069014600900198FEF765FF0290F0
:101300002F48C069014601900298FEF75DFF0390E7
:101310002C48C069014602900398FEF703FF049031
:10132000FFF7EFF800B2284908800D988188274818
:1013300001802748B0F900302348B0F90020254843
:10134000B0F900102448B0F9000002F02BF823484F
:101350000078012806D00D98B0F9040040F24C4105
:1013600088421ADA1E480068B8B900201A49088075
:101370001849088016490880002113480180144844
:10138000B0F900301048B0F900201248B0F9001050
:101390001148B0F9000002F005F80D48B0F900302E
:1013A0000948B0F900200B48B0F900100A48B0F91C
:1013B000000001F0F7FF0FB000BD00004404002062
:1013C0006404002084040020BE010020D00100201D
:1013D000C0010020BC010020BA010020EA01002069
:1013E000D401002070B50024AA222146641C48487C
:1013F00042542146641C425406222146641C425435
:1014000000222146641C4254424842782146641C12
:101410003F4842543F4802782146641C3C484254AD
:101420003D4842782146641C394842543A48027883
:101430002046611CCCB236490A54384842782046CE
:10144000611CCCB232490A54344802782046611CEF
:10145000CCB22F490A54324842782046611CCCB2A3
:101460002B490A542E4802782146601CC4B22848F1
:1014700042542C4842782046611CCCB224490A547C
:10148000284802782046611CCCB221490A542648DB
:1014900042782046611CCCB21D490A542248027889
:1014A0002046611CCCB21A490A5420484278204692
:1014B000611CCCB216490A541C4802782046611CB3
:1014C000CCB213490A541A4842782046611CCCB267
:1014D0000F490A54164802782046611CCCB20C49C8
:1014E0000A54201FC8700025002005E00849095C47
:1014F0002944CDB2411CC8B2A042F7DB2046611C92
:10150000CCB203490D542146014801F0ADFF70BD36
:10151000FC010020BA010020BC010020BE01002017
:10152000C0010020C2010020C4010020C60100202B
:10153000C801002070B50024AA222146641C4F482F
:1015400042542146641C425402222146641C4254E7
:1015500000222146641C4254494842782146641CBA
:1015600046484254464802782146641C4348425447
:101570004348C2782146641C40484254404882781F
:101580002046611CCCB23D490A543D484279204670
:10159000611CCCB239490A54394802792046611C91
:1015A000CCB236490A54374842782046611CCCB246
:1015B00032490A54334802782046611CCCB22F4984
:1015C0000A543048C2782146601CC4B22B484254A9
:1015D0002C4882782046611CCCB228490A542948FC
:1015E00042792046611CCCB224490A54254802792C
:1015F0002046611CCCB221490A5423484278204637
:10160000611CCCB21D490A541F4802782046611C57
:10161000CCB21A490A541C48C2782046611CCCB28C
:1016200016490A54184882782046611CCCB21349E6
:101630000A54154842792046611CCCB20F490A541D
:10164000114802792046611CCCB20C490A54201F73
:10165000C8700025002005E00849095C2944CDB286
:10166000411CC8B2A042F7DB2046611CCCB2034942
:101670000D542146014801F0F7FE70BDFC01002029
:10168000C0000020C6000020CC0000207CB5002453
:10169000AA222146641C544842542146641C4254E8
:1016A00001222146641C425400222146641C4254FB
:1016B0004E4908684E49FEF78DFD0646FEF721FFAC
:1016C00000B201909DF805202146641C4648425412
:1016D0009DF804202146641C42544449486844490A
:1016E000FEF778FD0646FEF70CFF00B201909DF86C
:1016F00005202146641C3C4842549DF804202046A5
:10170000611CCCB238490A54384988683849FEF718
:1017100061FD0646FEF7F5FE00B201909DF805203A
:101720002046611CCCB230490A549DF80420204662
:10173000611CCCB22C490A542E48006864214843ED
:1017400000909DF803202046611CCCB226490A5423
:101750009DF802202046611CCCB223490A549DF812
:1017600001202046611CCCB21F490A549DF800207C
:101770002046611CCCB21C490A541F48827B20467B
:10178000611CCCB218490A541B48807B1B49087065
:101790000846007830B9A0222146601CC4B2124825
:1017A000425409E015480078012805D1A1222046BD
:1017B000611CCCB20C490A54201F0B49C87000258B
:1017C000002005E00849095C2944CDB2411CC8B29B
:1017D000A042F7DB2046611CCCB203490D542146E0
:1017E000014801F041FE7CBDFC010020C003002047
:1017F0000000C84220000020B00700201B0000208D
:10180000F8B50024AA222146641C7C484254214693
:10181000641C425410222146641C4254002221467A
:10182000641C4254764908687649FEF7D3FC0646A4
:10183000FEF767FE00B200909DF801202146641C6F
:101840006E4842549DF800202146641C42546C4965
:1018500088686C49FEF7BEFC0646FEF752FE00B2F1
:1018600000909DF801202146641C644842549DF874
:1018700000202046611CCCB260490A5460490869C6
:101880006049FEF7A7FC0646FEF73BFE00B200905B
:101890009DF801202046611CCCB258490A549DF89D
:1018A00000202046611CCCB254490A5456490868AD
:1018B0005449FEF78FFC0646FEF723FE00B2009067
:1018C0009DF801202046611CCCB24C490A549DF879
:1018D00000202146601CC4B2484842544A498868E6
:1018E0004849FEF777FC0646FEF70BFE00B2009073
:1018F0009DF801202046611CCCB240490A549DF855
:1019000000202046611CCCB23C490A543E4908697B
:101910003C49FEF75FFC0646FEF7F3FD00B200907F
:101920009DF801202046611CCCB234490A549DF830
:1019300000202146601CC4B2304842543349086834
:101940003049FEF747FC0646FEF7DBFD00B200908B
:101950009DF801202046611CCCB228490A549DF80C
:1019600000202046611CCCB224490A5427498868CB
:101970002449FEF72FFC0646FEF7C3FD00B2009097
:101980009DF801202146601CC4B21C4842549DF8B9
:1019900000202046611CCCB218490A541B49086932
:1019A0001849FEF717FC0646FEF7ABFD00B20090A3
:1019B0009DF801202046611CCCB210490A549DF8C4
:1019C00000202046611CCCB20C490A54201FC8706C
:1019D0000025002005E00949095C2944CDB2411CDD
:1019E000C8B2A042F7DB2046611CCCB203490D54BB
:1019F0002146024801F038FDF8BD0000FC0100203E
:101A0000440400200000C842640400208404002034
:101A100070B50024AA222146641C5648425421462F
:101A2000641C425403222146641C42540022214675
:101A3000641C4254504842792146641C4D4842542B
:101A40004D4802792146641C4A4842544A48C279AA
:101A50002146641C47484254474882792146601C0D
:101A6000C4B244484254444842782046611CCCB237
:101A700040490A54404802782046611CCCB23D4996
:101A80000A543D48C2782046611CCCB239490A54F8
:101A9000394882782046611CCCB236490A5436480F
:101AA000427A2046611CCCB232490A543248027A4A
:101AB0002146601CC4B22F4842542F48C27A2146A6
:101AC000601CC4B22B4842542B48827A2046611CC9
:101AD000CCB228490A542848427B2046611CCCB22B
:101AE00024490A542448027B2046611CCCB2214977
:101AF0000A542148C27B2046611CCCB21D490A54BD
:101B00001D48827B2046611CCCB21A490A541A48EF
:101B1000427C2046611CCCB216490A541648027C0D
:101B20002046611CCCB213490A541348C27C20469B
:101B3000611CCCB20F490A540F48827C2046611CBC
:101B4000CCB20C490A54201FC8700025002005E0C3
:101B50000849095C2944CDB2411CC8B2A042F7DB58
:101B60002046611CCCB203490D542146014801F0C6
:101B70007BFC70BDFC010020B00700202DE9F04186
:101B800004460D460026002004E0215C3144CEB21C
:101B9000411CC8B2691E8142F7DC601910F8010CC3
:101BA000B04201D0BDE8F0812078AA2803D1607846
:101BB000AF2800D0F6E7A078022809D120790128C3
:101BC00006D1FFF71DFE2079022801D100F028F987
:101BD000A07810287ED12179090209B2227841EA41
:101BE0000200FEF780FC07466F49FEF725FB6F49B0
:101BF0000860A179090209B2227841EA0200FEF7E1
:101C000072FC07466849FEF717FB68498860217A2D
:101C1000090209B2227841EA0200FEF764FC074695
:101C20006149FEF709FB61490861A17A090209B21D
:101C3000227841EA0200FEF756FC07465A49FEF7B1
:101C4000FBFA5B490860217B090209B2227841EA6C
:101C50000200FEF748FC07465349FEF7EDFA5449E7
:101C60008860A17B090209B2227841EA0200FEF7EE
:101C70003AFC07464C49FEF7DFFA4D490861217CE2
:101C8000090209B2227841EA0200FEF72CFC07465D
:101C90004549FEF7D1FA47490860A17C090209B21B
:101CA000227841EA0200FEF71EFC07463E49FEF795
:101CB000C3FA40498860217D090209B2227841EACD
:101CC0000200FEF710FC07463749FEF7B5FA39491E
:101CD000086100E004E0304600F076F800F0E2FD34
:101CE000A07816281BD12179090209B2627941EA4C
:101CF0000200FEF7F8FB07462F49FEF79DFA2F4931
:101D00000860A179090209B2E27941EA0200FEF70E
:101D1000EAFB07462849FEF78FFA29490860A078B0
:101D200003283ED12079000200B261790843254999
:101D30008880A079000200B2E17908432149C88077
:101D4000207A000200B2617A08431E490880A07A16
:101D5000000200B2E17A08431A494880207B000261
:101D600000B2617B084317490881A07B000200B2E2
:101D7000E17B084313494881207C000200B2617C6A
:101D8000084310498881A07C000200B2E17C08432E
:101D90000C49C881A07D000200B2E17D08430949D9
:101DA000488200BFFEE600000000C8424404002054
:101DB000640400208404002000007A4454010020C0
:101DC00058010020B007002070B505460024AA2065
:101DD000114908704870EF2088700220C8701020E8
:101DE00008710846447100200C4908600AE00A485E
:101DF0000A490968405C2044C4B208480068401C95
:101E000006490860054800680628F0DB024884712E
:101E1000072103F01FF870BDFC0100202400002002
:101E2000F8B50024AA222146641C284842542146C1
:101E3000641C425416222146641C4254002221464E
:101E4000641C4254224923480068FEF7C3F9064641
:101E5000FEF757FB00B200909DF801202146641C5C
:101E60001A4842549DF800202146641C42541849E7
:101E700019480068FEF7AEF90646FEF742FB00B2CD
:101E800000909DF801202146641C104842549DF8A2
:101E900000202046611CCCB20C490A54201FC87097
:101EA0000025002005E00949095C2944CDB2411C08
:101EB000C8B2A042F7DB2046611CCCB203490D54E6
:101EC0002146024801F0D0FAF8BD0000FC010020D4
:101ED00000007A44540100205801002003460621E6
:101EE00006221248018812480288ABB1012B1BD18F
:101EF0003AB94EF6EE60814201D1002070470120D0
:101F0000FCE739B94EF6EE60824201D10120F5E7D7
:101F10000020F3E7AB20F1E709B90020EEE70AB9AA
:101F20000120EBE7AB20E9E70020E7E7000001082C
:101F30000004010810B504240B4800F0EBFD044632
:101F4000042C01D0204610BD0021074800F022FEDD
:101F50000446042C01D02046F5E7044800F0DAFDE1
:101F600004462046EFE700000000010800040108D5
:101F700010B500F001F810BD10B502F0D5FF044611
:101F800001F04CF8204610BD2DE9F84F0746894670
:101F90000425DFF8D8A0364800904FF00008002450
:101FA00000264FF0000B0020FFF798FF8046B8F1A5
:101FB000010F05D1DFF8B8A02C48401C00900CE0C0
:101FC000B8F1000F06D1DFF8A4A00AF1010A2848F1
:101FD000009002E0AB20BDE8F88F4EF6EE6150466F
:101FE00000F0D8FD0546042D01D02846F3E701F0A6
:101FF00015F84946384600F037FD0646042E01D054
:102000003046E8E700241CE01A4830F81400B842D3
:1020100015D0184931F81400174900F0DBFB83464E
:10202000BBF1010F0BD0134931F814001249098894
:1020300000F01AFD0646042E01D03046CBE7601CA6
:1020400084B2392CE0DB009800F064FD0546042DD5
:1020500001D02846BFE70021504600F09BFD054611
:10206000042D01D02846B6E72846B4E7FF0301084F
:1020700000000108280000209C00002010B509493C
:102080000888094900F0A6FB064948880649891CCA
:1020900000F0A0FB034988880349091D00F09AFB62
:1020A00010BD000028000020BA00002010B509492A
:1020B000C888094900F08EFB064908890649891C31
:1020C00000F088FB034948890349091D00F082FBA1
:1020D00010BD000028000020B40000201CB5FE4800
:1020E000808901A9009000F075FBBDF80400FEF79F
:1020F00003FAFA490090FEF79FF8F9490860F6489C
:10210000C08901A9009000F065FBBDF80400FEF74E
:10211000F3F9F4490090FEF78FF8F1498860EE4832
:10212000008A01A9009000F055FBBDF80400FEF7FD
:10213000E3F9EA490090FEF77FF8E9490861E648CB
:10214000408A01A9009000F045FBBDF80400FEF7AD
:10215000D3F9E2490090FEF76FF8E3490860DE48E2
:10216000808A01A9009000F035FBBDF80400FEF75D
:10217000C3F9DC490090FEF75FF8DB498860D64878
:10218000C08A01A9009000F025FBBDF80400FEF70D
:10219000B3F9D2490090FEF74FF8D3490861CE4811
:1021A000008B01A9009000F015FBBDF80400FEF7BC
:1021B000A3F9CA490090FEF73FF8CC490860C64829
:1021C000408B01A9009000F005FBBDF80400FEF76C
:1021D00093F9C4490090FEF72FF8C4498860BE48BF
:1021E000808B01A9009000F0F5FABDF80400FEF71D
:1021F00083F9BA490090FEF71FF8BC490861B64858
:10220000C08B01A9009000F0E5FABDF80400FEF7CC
:1022100073F9B2490090FEF70FF8B5490860AE486F
:10222000008C01A9009000F0D5FABDF80400FEF77B
:1022300063F9AC490090FDF7FFFFAD498860A648FF
:10224000408C01A9009000F0C5FABDF80400FEF72B
:1022500053F9A2490090FDF7EFFFA54908619E4898
:10226000808C01A9009000F0B5FABDF80400FEF7DB
:1022700043F99A490090FDF7DFFF9E4908609648B0
:10228000C08C01A9009000F0A5FABDF80400FEF78B
:1022900033F994490090FDF7CFFF964988608E4846
:1022A000008D01A9009000F095FABDF80400FEF73A
:1022B00023F98A490090FDF7BFFF8E4908618648DF
:1022C000408D01A9009000F085FABDF80400FEF7EA
:1022D00013F982490090FDF7AFFF874908607E48F7
:1022E000808D01A9009000F075FABDF80400FEF79A
:1022F00003F97C490090FDF79FFF7F49886076488D
:10230000C08D01A9009000F065FABDF80400FEF749
:10231000F3F872490090FDF78FFF774908616E4826
:10232000008E01A9009000F055FABDF80400FEF7F8
:10233000E3F86A490090FDF77FFF7049086066483E
:10234000408E01A9009000F045FABDF80400FEF7A8
:10235000D3F864490090FDF76FFF684988605E48D4
:10236000808E01A9009000F035FABDF80400FEF758
:10237000C3F85A490090FDF75FFF6049086156486D
:10238000C08E01A9009000F025FABDF80400FEF708
:10239000B3F852490090FDF74FFF594908604E4885
:1023A000008F01A9009000F015FABDF80400FEF7B7
:1023B000A3F84C490090FDF73FFF5149886046481B
:1023C000408F01A9009000F005FABDF80400FEF767
:1023D00093F842490090FDF72FFF494908613E48B4
:1023E000808F01A9009000F0F5F9BDF80400FEF718
:1023F00083F83A490090FDF71FFF424908603648CC
:10240000C08F01A9009000F0E5F9BDF80400FEF7C7
:1024100073F834490090FDF70FFF3A4988602E4861
:10242000B0F8400001A9009000F0D4F9BDF8040014
:10243000FEF762F829490090FDF7FEFE3149086178
:102440002548B0F8420001A9009000F0C3F9BDF89A
:102450000400FEF751F821490090FDF7EDFE2A49EE
:1024600008601D48B0F8440001A9009000F0B2F9DE
:10247000BDF80400FEF740F81A490090FDF7DCFEB5
:10248000214988601448B0F8460001A9009000F086
:10249000A1F9BDF80400FEF72FF810490090FDF7F0
:1024A000CBFE194908610C48B0F8480001A900901A
:1024B00000F090F9BDF80400FEF71EF807490090FF
:1024C000FDF7BAFE114908600348B0F84A0001A9B7
:1024D000009000F07FF91BE0280000200000C842B7
:1024E0004404002000007A44640400208404002096
:1024F000A4040020C4040020E404002004050020FB
:1025000024050020440500206405002084050020E7
:10251000BDF80400FDF7F0FFA4490090FDF78CFE24
:10252000A3498860A348B0F84C0001A9009000F0CE
:1025300051F9BDF80400FDF7DFFF9F490090FDF75A
:102540007BFE9B4908619B48B0F84E0001A90090B2
:1025500000F040F9BDF80400FDF7CEFF9649009069
:10256000FDF76AFE954908609248B0F8500001A94D
:10257000009000F02FF9BDF80400FDF7BDFF8B4976
:102580000090FDF759FE8D4988608A48B0F85200E6
:1025900001A9009000F01EF9BDF80400FDF7ACFFA2
:1025A00085490090FDF748FE844908618148B0F8EC
:1025B000540001A9009000F00DF9BDF80400FDF7EA
:1025C0009BFF7D490090FDF737FE7D490860794803
:1025D000B0F8560001A9009000F0FCF8BDF8040026
:1025E000FDF78AFF71490090FDF726FE7449886067
:1025F0007048B0F8580001A9009000F0EBF8BDF861
:102600000400FDF779FF6C490090FDF715FE6C4959
:1026100008616848B0F85A0001A9009000F0DAF8A3
:10262000BDF80400FDF768FF63490090FDF704FE64
:10263000644908605F48B0F85C0001A9009000F0B0
:10264000C9F8BDF80400FDF757FF58490090FDF7A1
:10265000F3FD5C4988605748B0F85E0001A900901E
:1026600000F0B8F8BDF80400FDF746FF52490090AD
:10267000FDF7E2FD534908614E48B0F8600001A93A
:10268000009000F0A7F8BDF80400FDF735FF4A49B7
:102690000090FDF7D1FD4C4908604648B0F8620053
:1026A00001A9009000F096F8BDF80400FDF724FFA2
:1026B0003E490090FDF7C0FD434988603D48B0F8B1
:1026C000640001A9009000F085F8BDF80400FDF752
:1026D00013FF39490090FDF7AFFD3B4908613548CC
:1026E000B0F8660001A9009000F074F8BDF804008D
:1026F000FDF702FF30490090FDF79EFD3349086069
:102700002C48B0F8680001A9009000F063F8BDF80B
:102710000400FDF7F1FE25490090FDF78DFD2B49E2
:1027200088602448B0F86A0001A9009000F052F8CF
:10273000BDF80400FDF7E0FE1F490090FDF77CFDA9
:10274000224908611B48B0F86C0001A9009000F014
:1027500041F8BDF80400FDF7CFFE17490090FDF7E2
:102760006BFD1B4908601348B0F86E0001A900908A
:1027700000F030F8BDF80400FDF7BEFE0B490090F4
:10278000FDF75AFD124988600A48B0F8700001A9A7
:10279000009000F01FF8BDF80400FDF7ADFE0649FB
:1027A0000090FDF749FD0A4908611CBD00007A440C
:1027B00084050020280000200000C842A405002055
:1027C000C4050020E40500200406002024060020A3
:1027D000440600202DE9F04706460F46002545F245
:1027E00055584FF00109114CA2460020FFF776FB27
:1027F0000546AB2D01D1BDE8F0870C4800EB852ADA
:102800000B480068841E0AE0B4F80080B04505D18A
:1028100034F8020C38804FF0000904E0241F0AF15C
:1028200002008442F0D800BF4846E4E700000108F7
:10283000A000002010B50B4A128891B20A4A1088F5
:1028400000F056F9074A528891B2074A508800F0C2
:102850004FF9044A928891B2034A908800F048F9EF
:1028600010BD0000BA0000202800002010B50B4A5F
:10287000128891B20A4AD08800F03AF9074A528881
:1028800091B2074A108900F033F9044A928891B254
:10289000034A508900F02CF910BD0000B40000205C
:1028A0002800002070B5694908686949FDF792FC65
:1028B0000546FDF73FFE84B266498889214600F04F
:1028C00017F9624988686249FDF784FC0546FDF7FF
:1028D00031FE84B25F49C889214600F009F95B499D
:1028E00008695B49FDF776FC0546FDF723FE84B2D7
:1028F0005849088A214600F0FBF8574908685449AE
:10290000FDF768FC0546FDF715FE84B25149488A7B
:10291000214600F0EDF8504988684D49FDF75AFC12
:102920000546FDF707FE84B24A49888A214600F031
:10293000DFF8494908694649FDF74CFC0546FDF7B3
:10294000F9FD84B24349C88A214600F0D1F84349D1
:1029500008683F49FDF73EFC0546FDF7EBFD84B2F4
:102960003C49088B214600F0C3F83C498868384947
:10297000FDF730FC0546FDF7DDFD84B23549488B97
:10298000214600F0B5F8354908693149FDF722FCC8
:102990000546FDF7CFFD84B22E49888B214600F015
:1029A000A7F82F4908682A49FDF714FC0546FDF7EA
:1029B000C1FD84B22749C88B214600F099F8284907
:1029C00088682349FDF706FC0546FDF7B3FD84B290
:1029D0002049088C214600F08BF8214908691C49E0
:1029E000FDF7F8FB0546FDF7A5FD84B21949488CB3
:1029F000214600F07DF81B4908681549FDF7EAFB00
:102A00000546FDF797FD84B21249888C214600F0F7
:102A10006FF8144988680E49FDF7DCFB0546FDF7A1
:102A200089FD84B20B49C88C214600F061F80D493C
:102A300008690749FDF7CEFB0546FDF77BFD84B22B
:102A40000449088D214600F053F870BD440400206D
:102A50000000C842280000206404002084040020F4
:102A6000A4040020C40400202DE9F04104460F46D0
:102A700004250026DFF86C800120FFF72FFA0646B8
:102A8000AB2E01D1BDE8F081701C174901EB802805
:102A900021E0164800680068401CB8B93946134860
:102AA000006800F077F80546042D01D02846E9E7D4
:102AB00021460E480068801C00F06CF805460B4863
:102AC0000068001D094908602846DBE707480068E0
:102AD000001D06490860054800684045D9D380209C
:102AE000D0E70000FF070108FEFF0008A00000205B
:102AF00070B505460E46002431462846FFF7B4FF60
:102B00000446802C04D131462846FFF73DFA04469E
:102B1000204670BD30B5044604254FF4302000F047
:102B200065F80546042D17D10C48006940F00200F5
:102B30000A49086108464461006940F040000861A4
:102B40004FF4302000F052F805460448006941F681
:102B5000FD71084001490861284630BD002002404F
:102B600004200B49C96801F0010109B101200EE000
:102B70000749C96801F0040109B1022007E00449CE
:102B8000C96801F0100109B1032000E0042070477A
:102B90000020024070B504460D460426F00200F005
:102BA00025F80646042E11D10948006940F00100BD
:102BB000074908612580F00200F018F8064604482D
:102BC000006941F6FE71084001490861304670BD58
:102BD00000200240024803494860034848607047AB
:102BE0002301674500200240AB89EFCD00B50246C6
:102BF0000423FFF7B5FF034603E0FFF7B1FF0346E9
:102C0000521E012B01D1002AF7D102B90523184623
:102C100000BD2DE9F04102460025002600200023DA
:102C20000024002791F803C00CF00F0591F803C0B1
:102C30000CF0100CBCF1000F03D091F802C04CEA6C
:102C4000050591F800C0BCF1000F31D014680020D8
:102C50002BE04FF0010C0CFA00F3B1F800C00CEAC5
:102C600003069E4220D183004FF00F0C0CFA03F7AD
:102C7000BC4305FA03FC4CEA040491F803C0BCF120
:102C8000280F06D14FF0010C0CFA00FCC2F814C05A
:102C90000AE091F803C0BCF1480F05D14FF0010CD8
:102CA0000CFA00FCC2F810C0401C0828D1D31460F4
:102CB000B1F800C0BCF1FF0F34DD546800202EE0F5
:102CC00000F1080C4FF0010808FA0CF3B1F800C04D
:102CD0000CEA03069E4221D183004FF00F0C0CFA40
:102CE00003F7BC4305FA03FC4CEA040491F803C063
:102CF000BCF1280F05D100F1080C08FA0CF8C2F855
:102D0000148091F803C0BCF1480F07D100F1080C02
:102D10004FF0010808FA0CF8C2F81080401C08288F
:102D2000CED35460BDE8F081F0B50A4600230024FC
:102D30000021002500F00046B6F1004F02D11D4EE3
:102D4000F16901E01B4E7168C0F3034583B200F4E2
:102D50004016B6F5401F08D121F07061154E766817
:102D600026F07066134F7E6012E000F48016B6F510
:102D7000801F06D1032606FA05F4A14341F07061D5
:102D800006E0460D360103FA06F6B14341F07061E4
:102D900022B1460D360103FA06F6314300F0004633
:102DA000B6F1004F02D1034EF16101E0014E7160B6
:102DB000F0BD0000000001400246002093680B4077
:102DC0000BB1012000E000207047416170470161B4
:102DD0007047000070B5002401F0A8F800251CE041
:102DE0006006040E4FF480610E48FFF7F0FF00F01C
:102DF000C5F84FF400610B48FFF7DEFF012801D151
:102E000044F0010400F0BAF84FF480610548FFF780
:102E1000DCFF00F0B3F8681CC5B2082DE0DB2046EB
:102E200070BD0000000C014010B54FF480611748E0
:102E3000FFF7CBFF00F0A2F84FF400611348FFF753
:102E4000C6FF01F073F800F099F84FF480610F4865
:102E5000FFF7BDFF00F092F84FF400610B48FFF759
:102E6000ABFF40B101F078F84FF480610748FFF7FD
:102E7000ACFF002010BD4FF480610448FFF7A5FFB0
:102E800001F06AF800F07AF80120F3E7000C014045
:102E900010B54FF480610D48FFF797FF00F06EF812
:102EA0004FF400610948FFF792FF00F067F84FF414
:102EB00080610648FFF78BFF00F060F84FF4006177
:102EC0000248FFF782FF00F059F810BD000C0140E6
:102ED00010B54FF480610D48FFF777FF00F04EF812
:102EE0004FF400610948FFF770FF00F047F84FF416
:102EF00080610648FFF76BFF00F040F84FF4006177
:102F00000248FFF764FF00F039F810BD000C0140E3
:102F100070B50446002521E04FF480611648FFF7A4
:102F200054FF00F02BF804F0800028B14FF400614A
:102F30001148FFF74CFF04E04FF400610E48FFF723
:102F400044FF6006040E00F019F84FF480610A484F
:102F5000FFF73DFF00F012F8681CC5B2082DDBDB5F
:102F60004FF480610448FFF730FFFFF75DFF00B9C1
:102F700070BD00BFFCE70000000C014008B5012057
:102F8000009002E00098401E009000980028F9D1BF
:102F900008BD000010B500216B2001F0C3F8C82067
:102FA00002F044FC0421192001F0BCF8C82002F012
:102FB0003DFC02211A2001F0B5F8C82002F036FCD1
:102FC00018211B2001F0AEF8C82002F02FFC1021C0
:102FD0001C2001F0A7F802A001F07AFF10BD00004C
:102FE0000D0A323A494943B3F5CABCBBAFCDEAB387
:102FF000C9A3A10D0A0000000648806940F008003E
:10300000044988610448006840F44C500249086053
:103010007047000000100240040C014070B5042607
:1030200000240120FEF75AFF0446AB2C06D11248BB
:1030300000EB842011490860AB2070BD0E4800EB06
:1030400084200E490860601C0B49891E01EB802515
:103050000CE00A4800680068401C10B9042630469D
:10306000EBE706480068001D044908600348006853
:10307000A842EED38020E0E700000108A000002075
:1030800008B50121082000F031FF0121102000F0D7
:103090002DFF0121084600F029FF01211148FFF70B
:1030A00043FE01211048FFF73FFE4FF40050ADF8FA
:1030B000000003208DF8020010208DF803006946FF
:1030C0000A48FFF7A6FD0820ADF8000003208DF8A0
:1030D000020010208DF8030069460548FFF799FDAE
:1030E00008BD000000043000000230000010014064
:1030F000000C014010B5214840782049097840EA89
:10310000012000B21E4908801C48C0781B498978FC
:1031100040EA012000B21A4948801848407917490E
:10312000097940EA012000B2154988801348407AA5
:103130001249097A40EA012012490988401A00B26E
:10314000114908800D48C07A0C49897A40EA01206B
:103150000C494988401A00B20B4948800748407B17
:103160000649097B40EA012006498988401A00B2D5
:103170000549888000F00AF810BD000070060020A4
:10318000AC000020B4000020DE00002010B557483D
:103190000078002856D15648007870B9002055496B
:1031A0000880488088805449086054490860544920
:1031B000086001204E49087010BD5248B0F9000067
:1031C0004D49096808444C4908604E48B0F902006E
:1031D0004A4909680844494908604A48B0F9040066
:1031E0004749096808444649086041480078C828AA
:1031F00023D1414800683E49097890FBF1F000B2C4
:103200003C4908803D4800683949097890FBF1F055
:1032100000B2384948803A4800683549097890FB3F
:10322000F1F000B233498880002031490870012054
:103230002E490870FFF71AFBBEE72D480078401CA6
:103240002B4908703048007800284DD12F4800786D
:1032500070B900202E490880488088802D49086078
:103260002D4908602D490860012028490870A3E70E
:103270002B48B0F90000274909680844254908602F
:103280002748B0F902002449096808442249086027
:103290002348B0F904002149096808441F4908601F
:1032A0001A480078C8281AD11A48006817490978BE
:1032B00090FBF1F000B216490880174800681349E6
:1032C000097890FBF1F000B21149488000200F49C5
:1032D000087001200C490870FFF7ACFA6CE70B4846
:1032E0000078401C0949087000BF65E7A400002071
:1032F000F4000020B4000020E8000020EC000020D2
:10330000F0000020DE000020A500002004010020C5
:10331000BA000020F8000020FC000020000100207E
:10332000AC00002010B53B2000F0E4FE1C49087002
:103330003C2000F0DFFE1A4948703D2000F0DAFE24
:10334000174988703E2000F0D5FE1549C8703F200F
:1033500000F0D0FE12490871402000F0CBFE104969
:103360004871432000F0C6FE0D490872442000F069
:10337000C1FE0B494872452000F0BCFE0849887226
:10338000462000F0B7FE0649C872472000F0B2FEA2
:1033900003490873482000F0ADFE0149487310BD91
:1033A0007006002030B5B0F57A7F01DB40F2E730DF
:1033B000B1F57A7F01DB40F2E731B2F57A7F01DBCC
:1033C00040F2E732B3F57A7F01DB40F2E7330028C1
:1033D00000DA0020002900DA0021002A00DA0022A9
:1033E000002B00DA00234FF08045A8862987AA87A2
:1033F000014D2B8030BD0000400000402DE9F04120
:1034000007460D46164610210B48FFF7DEFC3846EE
:1034100000F09AFE8046002405E0002000F094FEB3
:103420002855601CC4B2B442F7DB10210248FFF7F4
:10343000CEFC4046BDE8F0810008014070B504466E
:1034400010210848FFF7C1FC204600F07DFE002057
:1034500000F07AFE054610210248FFF7B8FC284626
:1034600070BD00000008014070B504460D460421FF
:103470000848FFF7AAFC052207492A2000F00EF8A9
:103480002A462146A02000F009F804210148FFF750
:103490009EFC70BD000C0140EB0100202DE9F041C5
:1034A00007460D46164610210B48FFF78EFC38469E
:1034B00000F04AFE8046002404E0285D00F044FE4F
:1034C000601CC4B2B442F8DB10210348FFF77FFC54
:1034D0004046BDE8F08100000008014070B5054697
:1034E0000C4610210748FFF770FC284600F02CFE20
:1034F0000646204600F028FE10210248FFF767FC30
:10350000304670BD0008014070B5002100230F2235
:10351000C47804B3154C246804F4E064C4F5E06492
:10352000210AC1F10403CA40447804FA03F1847803
:103530001440214309010E4C0678A155047804F08B
:103540001F050124AC4005786D11AD0005F1E025A3
:10355000C5F8004109E0047804F01F050124AC40DF
:10356000044D0678761145F8264070BD0CED00E05C
:1035700000E400E080E100E002490143024A1160FA
:10358000704700000000FA050CED00E070B504463D
:103590000D4604213948FFF718FC052238492A2036
:1035A000FFF77CFF052237493020FFF777FF012125
:1035B0002120FFF793FF01212220FFF78FFF1A211F
:1035C0002420FFF78BFF00212520FFF787FF0F2125
:1035D0002620FFF783FF012C08D120213120FFF79F
:1035E0007DFF0F212020FFF779FF41E0022C08D159
:1035F00020213120FFF772FF0E212020FFF76EFF00
:1036000036E0032C1AD1FF21E120FFF767FFFF21ED
:10361000E220FFF763FF0F212020FFF75FFF50201C
:1036200000F092FD732000F08FFD01213C20FFF798
:1036300055FF07213D20FFF751FF19E00E21202003
:10364000FFF74CFFFF21E120FFF748FFFF21E220B9
:10365000FFF744FF502000F077FD732000F074FD69
:1036600001213C20FFF73AFF07213D20FFF736FFFD
:1036700004210248FFF7ABFB70BD0000000C0140C5
:10368000F0010020EB0100201CB505220E4930207E
:10369000FFF704FF052269461020FFF7AFFE002464
:1036A00008E01DF804000849095D884200D003E0E5
:1036B000601CC4B2052CF4DB00BF052C01D1012035
:1036C0001CBD0020FCE70000EB01002070B50720C6
:1036D000FFF7B4FE044604F04000C8B16020FFF7D5
:1036E000ADFE0546212D0EDA2A461D496120FFF761
:1036F00085FE29461A48FEF741FA0020194908704C
:103700001949088003E0FF21E220FFF7E7FE0FE000
:1037100015480088401C1449088008460088C828BD
:1037200006DD002008801149087001200D4908704D
:1037300004F0100030B104F0010018B1FF21E120C5
:10374000FFF7CCFE21462720FFF7C8FE00F010F857
:10375000044604F0100000B970BD00BFFCE7000093
:10376000C4070020EA010020E60100201B00002021
:1037700010B51720FFF762FE10BD08B54FF4A0602A
:10378000FFF7FAFE25208DF8000001208DF80100DA
:103790008DF802008DF803006846FFF7B5FE1D2086
:1037A0008DF8000002208DF801008DF80200012044
:1037B0008DF803006846FFF7A7FE1E208DF8000075
:1037C00000208DF8010001208DF802008DF8030023
:1037D0006846FFF799FE1B208DF8000000208DF849
:1037E000010001208DF802008DF803006846FFF704
:1037F0008BFE08BD07B5A6B02798B0F900000F9062
:10380000FCF771FE24902798B0F902000F90FCF7A6
:103810006AFE23902798B0F904000F90FCF763FE2E
:1038200022902698B0F900000F90FCF75CFE2190E2
:103830002698B0F902000F90FCF755FE20902698CC
:10384000B0F904000F90FCF74EFE1F90FE4801688F
:103850000068FCF7BFFC1790FC480168FA48006854
:10386000FCF7B8FC1690FA480168F7480068FCF7C6
:10387000B1FC1590F54801680068FCF7ABFC1490AA
:10388000F4480168F1480068FCF7A4FC1390F04884
:1038900001680068FCF79EFC1290EE480168EC4855
:1038A0000068FCF797FC1190EA4801680068FCF793
:1038B00091FC109000212498FCF780FE05D14FF474
:1038C0000051E548FFF783FA04E04FF40051E24865
:1038D000FFF77BFAE1492198FCF77CFC2190DF4956
:1038E0002098FCF777FC2090DC491F98FCF772FCCD
:1038F0001F9022990846FCF76DFC0A902399084610
:10390000FCF768FC089024990846FCF763FC0790D4
:103910000899FCF707FC09900A99FCF703FC0B9047
:10392000FCF71CFECDE90C0101F0F4FFCDE90E011E
:10393000FCF727FE1E901E992498FCF77DFC24902E
:103940001E992398FCF778FC23901E992298FCF787
:1039500073FC229015991398FCF736FC4FF08041C8
:103960000F90FCF737FC1D9011991698FCF7DAFBC5
:103970004FF080410F90FCF72DFC1C901499179884
:10398000FCF722FC0E901299FCF71EFC0F90109988
:10399000FCF7C8FB1B901C992298FCF71BFC0F90AE
:1039A0001B992398FCF716FC0E900F99FCF70CFC62
:1039B0001A901B992498FCF70DFC0F901D992298E2
:1039C000FCF708FC0E900F99FCF7FEFB19901D996F
:1039D0002398FCF7FFFB0F901C992498FCF7FAFB47
:1039E0000E900F99FCF7F0FB18909D491A98FCF780
:1039F000F1FB0F909B4801680F98FCF793FB9949E6
:103A0000086097491998FCF7E5FB0F909648016804
:103A10000F98FCF787FB9449086091491898FCF7C8
:103A2000D9FB0F90914801680F98FCF77BFB8F49F9
:103A300008608F481A99FCF7CDFB0E902199FCF78E
:103A400071FB0F90874801680F98FCF76BFB219082
:103A500087481999FCF7BEFB0E902099FCF762FB92
:103A60000F90814801680F98FCF75CFB209080481C
:103A70001899FCF7AFFB0E901F99FCF753FB0F90C2
:103A80007A4801680F98FCF74DFB1F9071481F9909
:103A90000068FCF79FFB0D906D4820990068FCF7CB
:103AA00099FB0B906948006880F0004009902199CB
:103AB000FCF790FB0A900B99FCF786FB0C900D9994
:103AC000FCF782FB6B490E90FCF784FB0F905E487D
:103AD00001680F98FCF726FB5B4908605D48209958
:103AE0000068FCF777FB0D9059481F990068FCF7B8
:103AF00071FB0B90544821990068FCF76BFB0A900E
:103B00000B99FCF70FFB0C900D99FCF75DFB5949E5
:103B10000E90FCF75FFB0F904C4801680F98FCF784
:103B200001FB4A4908604B4821990068FCF752FBA9
:103B30000D9046481F990068FCF74CFB0B904248DB
:103B400020990068FCF746FB0A900B99FCF73CFBB8
:103B50000C900D99FCF7E6FA46490E90FCF73AFBFB
:103B60000F903B4801680F98FCF7DCFA3849086071
:103B7000374821990068FCF72DFB0D9033482099B8
:103B80000068FCF727FB0B902F481F990068FCF793
:103B900021FB0A900B99FCF7C5FA0C900D99FCF7E4
:103BA00013FB34490E90FCF715FB0F902948016870
:103BB0000F98FCF7B7FA27490860084601680068C3
:103BC000FCF708FB0A90224801680068FCF702FB3A
:103BD00008901E4801680068FCF7FCFA06901A4835
:103BE00001680068FCF7F6FA05900699FCF79AFA66
:103BF00007900899FCF796FA09900A99FCF792FA4F
:103C00000B90FCF7ABFCCDE90C0101F083FECDE994
:103C10000E01FCF7B6FC1E900B481E990068FCF7DD
:103C20000BFB0949086009481E990068FCF704FB72
:103C30000649086006481E990068FCF7FDFA044929
:103C4000086004481E9917E06C01002070010020F4
:103C500074010020780100200010014089A18B3AF6
:103C600017B7513A7C010020800100208401002018
:103C70006666663F0AD7A33A0068FCF7DDFA4F494B
:103C800008602698B0F9040040420C90FCF72BFC29
:103C90004B490D90FCF79EFA4A490E90FCF79AFAB0
:103CA0000F902898806801460E900F98FCF73AFA1A
:103CB000289988604148016843480068FCF78AFAFF
:103CC00007904248016842480068FCF783FA069072
:103CD0000799FCF779FA4FF080410890FCF77AFADF
:103CE0000990FCF73BFCCDE90A0101F097FA81F05D
:103CF00000414FF06632374BCDE90C01FCF781FBF8
:103D0000CDE90E01FCF73DFC289908602B480168BD
:103D10000068FCF75FFA06902C4801680068FCF721
:103D200059FA0490284801680068FCF753FA029099
:103D3000274801680068FCF74DFA01900299FCF7EA
:103D400043FA03900499FCF73FFA05900699FCF7B3
:103D5000E9F90790FCF702FCCDE90A011748016870
:103D60001A480068FCF736FA0590174801681848A9
:103D70000068FCF72FFA04900599FCF7D3F94FF08F
:103D800080410690FCF726FA0790FCF7E7FBCDE9A7
:103D90000801DDE90A2301F089FC81F000414FF0C0
:103DA00066320C4BCDE90C01FCF72BFBCDE90E0183
:103DB000FCF7E7FB2899486029B000BD7801002096
:103DC000F1FF793D6F12033A700100207401002069
:103DD0006C01002066A64C40F0B50246002300248A
:103DE000002516882A4FDFF8ACC09CF800C027F8E1
:103DF0001C605688284FDFF89CC09CF800C027F84C
:103E00001C609788254EDFF88CC09CF800C026F80F
:103E10001C7000200DE01E4E36F9106033441E4E1B
:103E200036F9106034441D4E36F910603544461C96
:103E3000F0B21428EFDB142693FBF6F636B20E80B0
:103E4000142693FBF6F636B2154F3E80142694FBEB
:103E5000F6F636B24E80142694FBF6F636B2114FC3
:103E60003E80142695FBF6F636B28E80142695FB1E
:103E7000F6F636B20C4F3E80064E3678761C054F6D
:103E80003E703E463678142E01D100263E70F0BDBD
:103E9000CC03002088010020F40300201C04002033
:103EA0004C0100204E0100205001002029B1064A9B
:103EB000D2690243044BDA6104E0034AD2698243C7
:103EC000014BDA61704700000010024029B1064A38
:103ED00012690243044B1A6104E0034A12698243E7
:103EE000014B1A61704700000010024029B1064AD8
:103EF00092690243044B9A6104E0034A9269824347
:103F0000014B9A61704700000010024029B1064A37
:103F1000D2680243044BDA6004E0034AD268824369
:103F2000014BDA60704700000010024008488069C9
:103F300040F00800064988610648006820F4704097
:103F4000044908600846006840F4804008607047F3
:103F500000100240040C01400848806940F008004D
:103F6000064988610648006820F4704004490860EA
:103F70000846006840F4E0400860704700100240C6
:103F8000040C014010B51548806941F20C0108434A
:103F9000124988611248006880B2114908600846D9
:103FA0000068104908430E4908600F48006820F473
:103FB00070600D4908600846006840F44070086071
:103FC00010210748FEF703FF4FF45570074908809A
:103FD0000846008940F00200088110BD0010024030
:103FE000000801400000B3BB000C0140003001405C
:103FF0000246002013890B400BB1012000E0002095
:1040000070470146888970478181704710B500F07C
:1040100001F810BD0CB500200190009033480068F5
:1040200040F480303149086000BF3048006800F437
:10403000003000900198401C0190009818B9019838
:10404000B0F5A06FF1D12948006800F4003010B13C
:104050000120009001E0002000900098012843D149
:104060002348006840F010002149086008460068B5
:1040700020F0030008600846006840F00200086075
:104080001A48406819494860084640684860084630
:10409000406840F4806048600846406820F47C1026
:1040A00048600846406840F4F810486008460068D8
:1040B00040F08070086000BF0C48006800F000709D
:1040C0000028F9D00948406820F0030007494860FB
:1040D0000846406840F00200486000BF034840685E
:1040E00000F00C000828F9D10CBD000000100240BF
:1040F0000020024070B50446FEF7CAFED020FEF74D
:1041000007FF2046FEF704FFFEF7C2FED120FEF7B0
:10411000FFFEFEF75FFE0546FEF786FEFEF7D8FEC1
:10412000284670BD70B505460C46FEF7B1FED0209E
:10413000FEF7EEFE2846FEF7EBFE2046FEF7E8FE11
:10414000FEF7C6FE70BD000010B5044600BF022198
:104150000A48FFF74DFF0028F9D021460748FFF72E
:1041600053FF00BF01210548FFF742FF0028F9D0A7
:104170000248FFF746FFC0B210BD0000003001400A
:1041800010B51348006840F0010011490860084666
:104190004068104908400E494860084600680E49CA
:1041A00008400B4908600846006820F48020086039
:1041B0000846406820F4FE0048604FF41F00886005
:1041C000FFF724FF4FF000600449086010BD0000B5
:1041D000001002400000FFF8FFFFF6FE08ED00E0CF
:1041E000F0B50C46154600220021068C4FF6FE77EE
:1041F0003E400684028B018C4FF60C7632407E1CCA
:1042000006EA03162E433243104EB0420ED0104E33
:10421000B0420BD0B0F1804F08D00E4EB04205D066
:104220000D4EB04202D00D4EB04206D14FF6FD7693
:10423000314044F00106314305E04FF6F576314058
:1042400044F00106314302830184F0BD002C01409B
:10425000003401400004004000080040000C004011
:10426000F0B50C461546002200210026078C4FF6BB
:10427000EF7C07EA0C070784028B018C4FF6FF776F
:1042800007EA041640F6FF473A404FF6FF7707EA81
:1042900003373A434FF6FF7707EA05273A43114FB2
:1042A000B8420ED0104FB8420BD0B0F1804F08D0BA
:1042B0000E4FB84205D00E4FB84202D00D4FB84253
:1042C00006D14FF6DF77394046F01007394305E055
:1042D0004FF65F77394044F0100739430283018479
:1042E000F0BD0000002C01400034014000040040FB
:1042F00000080040000C0040F0B50C4615460022B6
:1043000000210026078C4FF6FF6C07EA0C07078494
:10431000828B018C4FF6FF7707EA04264FF60C7765
:104320003A404FF6FF7707EA03172F433A43114FFE
:10433000B8420ED0104FB8420BD0B0F1804F08D029
:104340000E4FB84205D00E4FB84202D00D4FB842C2
:1043500006D14FF6FF57394046F48077394305E0E0
:104360004FF2FF57394044F4807739438283018408
:10437000F0BD0000002C014000340140000400406A
:1043800000080040000C0040F0B50C461546002225
:1043900000210026078C4EF6FF7C07EA0C070784F5
:1043A000828B018C4FF6FF7707EA043640F6FF4711
:1043B0003A404FF6FF7707EA05273A434FF6FF7773
:1043C00007EA03373A43114FB8420ED0104FB842B4
:1043D0000BD0B0F1804F08D00E4FB84205D00E4F31
:1043E000B84202D00D4FB84206D14DF6FF773940A2
:1043F00046F48057394305E047F6FF57394044F407
:104400008057394382830184F0BD0000002C0140B5
:10441000003401400004004000080040000C00404F
:1044200010B501F0EBFB10BD10B52E48008800F070
:104430000100002854D04FF6FE702A4908802A480F
:104440000078401C28490870FFF740F9264800789A
:10445000052828D108212548FEF7B9FC0020244969
:10446000087004E022480078401C21490870204868
:1044700000781428F6DB08211C48FEF7A6FC1D482E
:104480000078401C1B4908701B480078401C1A49E2
:1044900008701A480078401C18490870002012491A
:1044A000087001F09FFC13480078052804D1FDF73F
:1044B000EDF800200F4908700F4800780A2806D14F
:1044C00000200D490870FDF735F8FDF7A1FA0B48FB
:1044D00000780F2804D1002008490870FCF782FFFB
:1044E00010BD00001004004006000020000C014038
:1044F0001A0000200700002008000020090000200A
:1045000010B501F02DFA10BD21B1028842F0010270
:10451000028004E002884FF6FE731A400280704762
:1045200010B504466848844208D10121C014FFF741
:10453000EDFC0021E014FFF7E9FCC4E0B4F1804F8A
:1045400008D101210846FFF7C1FC00210120FFF737
:10455000BDFCB8E05D48844208D101210220FFF78C
:10456000B5FC00210220FFF7B1FCACE058488442C2
:1045700008D101210420FFF7A9FC00210420FFF746
:10458000A5FCA0E05348844208D101210820FFF790
:104590009DFC00210820FFF799FC94E04E488442DE
:1045A00008D101211020FFF791FC00211020FFF716
:1045B0008DFC88E04948844208D101212020FFF782
:1045C00085FC00212020FFF781FC7CE044488442E8
:1045D00008D101214014FFF799FC00216014FFF776
:1045E00095FC70E03F48844209D10121C804FFF7DF
:1045F0008DFC00214FF40020FFF788FC63E03A486F
:10460000844209D101210805FFF780FC00214FF405
:104610008010FFF77BFC56E03448844209D1012129
:104620004805FFF773FC00214FF40010FFF76EFC04
:1046300049E02F48844208D101214020FFF746FC81
:1046400000214020FFF742FC3DE02A48844208D187
:1046500001218020FFF73AFC00218020FFF736FC83
:1046600031E02548844208D101218015FFF72EFC56
:104670000021A015FFF72AFC25E02048844209D13B
:1046800001210804FFF742FC00214FF48030FFF7BE
:104690003DFC18E01A48844209D101214804FFF783
:1046A00035FC00214FF40030FFF730FC0BE01548DB
:1046B000844208D101218804FFF728FC00214FF42F
:1046C0008020FFF723FC10BD002C014000040040B7
:1046D00000080040000C00400010004000140040A2
:1046E00000340140004C01400050014000540140A2
:1046F00000180040001C0040002000400040014025
:10470000004401400048014070B505460C4624486D
:1047100085420ED0234885420BD0B5F1804F08D09A
:104720002148854205D02148854202D02048854253
:1047300000D100E000BF208850B92389A288618899
:104740002846FFF74DFDE188284600F045F825E0B2
:10475000208804280AD12389A28861882846FFF787
:104760007FFDE188284600F040F817E020880828FF
:104770000AD12389A28861882846FFF7BDFDE18818
:10478000284600F03FF809E02389A288618828467E
:10479000FFF7FAFDE188284600F03DF870BD000003
:1047A000002C01400034014000040040000800409B
:1047B000000C00401AB183890B43838102E0838996
:1047C0008B438381704702894FF6F8731A40028148
:1047D00002890A4302817047028B4FF6F3731A4035
:1047E0000283028B0A4302837047028B4FF2FF332E
:1047F0001A400283028B4FF6FF7303EA01231A4328
:1048000002837047828B4FF6F3731A408283828B48
:104810000A4382837047828B4FF2FF331A408283B0
:10482000828B4FF6FF7303EA01231A43828370479A
:10483000002202881D4B98420ED01D4B98420BD08F
:10484000B0F1804F08D01B4B984205D01A4B9842CC
:1048500002D01A4B984204D14FF68F731A404B88FE
:104860001A43174B984207D0164B984204D04FF684
:10487000FF431A40CB881A4302808B8883850B88BC
:1048800003850A4B98420BD0094B984208D00E4B37
:10489000984205D00D4B984202D00D4B984201D161
:1048A0000B7A03860123838270470000002C0140AD
:1048B000003401400004004000080040000C0040AB
:1048C000001000400014004000400140004401403E
:1048D0000048014030B587B004460D460121C802AA
:1048E000FFF704FB01210420FFF700FB4FF41060E9
:1048F000ADF8000003208DF8020004208DF80300BD
:1049000069462648FEF785F92548FFF709FE4FF668
:10491000FF70ADF814009020ADF810000020ADF845
:104920001600ADF8120004A91D48FFF781FF002012
:10493000ADF80400ADF806000120ADF80800002035
:10494000ADF80A00ADF80C0001A91548FFF7DCFE30
:104950000C20ADF804000020ADF806000120ADF8F1
:1049600008000020ADF80A00ADF80C0001A90C48C1
:10497000FFF7CAFE04210A48FFF725FF01220221A2
:104980000748FFF717FF012210210548FFF712FF24
:1049900001210348FFF7B8FD07B030BD0008014012
:1049A000002C01401D4A926942F004021B4B9A619F
:1049B0001B4A12686FF30F02194B1A601A461268ED
:1049C0004BF6BB331A43164B1A60144AD26942F0B5
:1049D0000102124BDA619A0491851085128842F027
:1049E00081029B041A801A46128B46F668031A430A
:1049F000DB061A831A46928B46F668031A43DB06D7
:104A00009A831A46128A42F01F021A821A46128CA0
:104A100041F211131A439B071A8470470010024099
:104A2000000801400D49C96941F002010B4AD161FA
:104A30000B49088047210A4A121F11800849203972
:104A4000098841F00101064A203A1180111D0988A8
:104A500041F01F01121D118070470000001002403C
:104A60002C04004030B587B004460D4601210420D7
:104A7000FFF71CFA01210820FFF738FA4FF4707095
:104A8000ADF8000003208DF8020004208DF803002B
:104A900069463D48FEF7BDF83C48FFF741FD4FF63B
:104AA000FF70ADF814009020ADF810000020ADF8B4
:104AB0001600ADF8120004A93448FFF7B9FE002033
:104AC000ADF80400ADF806000120ADF808000020A4
:104AD000ADF80A00ADF80C0001A92C48FFF714FE50
:104AE0000420ADF804000020ADF806000120ADF868
:104AF00008000020ADF80A00ADF80C0001A9234819
:104B0000FFF702FE0820ADF804000020ADF8060013
:104B10000120ADF808000020ADF80A00ADF80C0047
:104B200001A91A48FFF7F0FD0C20ADF804000020A1
:104B3000ADF806000120ADF808000020ADF80A002D
:104B4000ADF80C0001A91148FFF7DEFD04210F4864
:104B5000FFF739FE012208210C48FFF72BFE012246
:104B600010210A48FFF726FE012202210748FFF71D
:104B700021FE012204210548FFF71CFE0121034804
:104B8000FFF7C2FC07B030BD000C01400008004038
:104B90000F4A926944F204031A430D4B9A610D4A7D
:104BA000126842F496620B4B1A6045220A4B1A8037
:104BB0001A1D128842F22C031A43074B1B1D1A8040
:104BC0001A1D128842F400721B1D1A8070470000E3
:104BD00000100240040801400838014010B500F000
:104BE00063F810BD02460020B1F5007F00D100BF80
:104BF00013880B400BB1012000E00020704770B516
:104C00000246002400230025002040F66A16B14227
:104C100000D100BFC1F3421501F01F03012606FABF
:104C200003F3012D02D19689334006E0022D02D113
:104C3000168A334001E0968A33400C12012606FAA8
:104C400004F41688344013B10CB1012000E00020B8
:104C500070BDF0B50346002400260025002040F674
:104C60006A17B94200D100BF1846C1F3421401F0DF
:104C70001F06012707FA06F5012C01D10C3004E0CC
:104C8000022C01D1103000E014301AB107682F4314
:104C9000076002E00768AF430760F0BD01468888FF
:104CA000C0F308007047000010B508215F48FFF707
:104CB00099FF10B15D48FFF7F1FF5C48008800F0F4
:104CC000800050B359480C30008800F0800020B3B9
:104CD00040F227715548FFF792FFF0B15448017830
:104CE0000078401C524A10705248405C4F49091DE0
:104CF0000880104600785049097888420DD14B4809
:104D00000C30008820F0800048490C3108800022D7
:104D100040F227714548FFF79CFF40F22551434878
:104D2000FFF76DFF00287FD00020444908703F48FE
:104D3000FFF7B4FF424908704248007858B9084666
:104D40000078AA2807D1084600783F49087001205A
:104D50003C49087068E03B48007801280BD138488E
:104D60000078AF2807D136480078374948700220CC
:104D70003449087058E03348007802280BD1304895
:104D80000078F12807DA2E4800782F498870032030
:104D90002C49087048E02B480078032812D1284895
:104DA000007832280EDA264800782749C87024484F
:104DB0000078264908700020254908700420214900
:104DC000087031E01F48007804281BD11F48007884
:104DD000002817DD1D480078401E1C49087018483F
:104DE00002781B4800781A490978491C184B197039
:104DF000001D15490A5415480078A8B90520114925
:104E0000087011E00F48007805280AD10C48017895
:104E10000F480078001D0C4A115400200949087001
:104E200002E000200749087010BD00000038014072
:104E3000DC0100207E060020DD010020E3010020CF
:104E4000E2010020DF0100207D070020E4010020B6
:104E5000E501002070B505460E4600240AE0295DF4
:104E60000C4802780078401C0A4B18700A4881549C
:104E7000601CC4B2B442F2DB0848008800F0800035
:104E800030B9012240F2277104480C38FFF7E1FEE7
:104E900070BD0000DD0100207E0600200C380140BE
:104EA00010B50446074801780078401C054A107088
:104EB00005484454012240F227710448FFF7C9FE17
:104EC00010BD0000DD0100207E06002000380140FA
:104ED00010B504460FE020780D2802D1FFF7E0FF5F
:104EE00008E020780A2802D1FFF7DAFF02E02078F4
:104EF000FFF7D6FF641C20780028ECD110BD4900D4
:104F000050EAC12018BF04204A0D18BF40F001002C
:104F100040F2FF72B2EB515F08BF40F0020001287F
:104F200008BF0520704700002DE9F0474FF0060A42
:104F3000062600250027A8464FF0FF397448B0F830
:104F400000A074480688BAF1000075D0A0F56E4044
:104F5000EE3858B3A0F58850113800286DD146B905
:104F60006B48FDF7D7FD0446042C1ED02046BDE853
:104F7000F0874EF6EE60864210D16548FDF7CAFD17
:104F80000446042C01D02046F1E700216148FDF7DA
:104F900001FE0446042C08D02046E8E7FCF7CAFFCF
:104FA0000446042C01D02046E1E7AEE07EBB00259C
:104FB00022E05748C088584931F81510884201D17D
:104FC0000FFA85F94D4515D0534931F8150053496D
:104FD000FDF700FC8046B8F1010F0BD04E4931F8C7
:104FE00015004E490988FDF73FFD0746042F01D003
:104FF0003846BCE7681C85B2392DDADB002144480D
:10500000FDF7C8FD0446042C02D02046AFE707E0B8
:105010004048FDF77FFD0446042C1FD02046A6E73C
:105020004FF6FF70864212D13A48FDF773FD0446F1
:10503000042C03D020469AE711E05EE000213448BA
:10504000FDF7A8FD0446042C08D020468FE7FCF7A6
:1050500071FF0446042C01D0204688E755E036B99C
:10506000FCF768FF0446042C46D020467FE74FF645
:10507000FF70864207D12748FDF74CFD0446042CFB
:105080003AD0204673E7002523E02248801D00889F
:10509000214931F81510884201D10FFA85F94D45A3
:1050A00015D01D4931F815001C49FDF793FB8046CA
:1050B000B8F1010F0BD0184931F8150017490988CC
:1050C000FDF7D2FC0746042F01D038464FE7681C95
:1050D00085B2392DD9DB00210E48FDF75BFD044672
:1050E000042C01D0204642E70948FDF713FD044691
:1050F000042C01D020463AE707E0FCF71BFF0446EA
:10510000042C01D0204632E700BF00BF04202EE768
:105110000000010800040108280000209C00002075
:105120002DE9F0414F1E00EBC7010446D1E9000113
:1051300015461E4637F006020DD02A463346FBF7C9
:1051400060F97F1E04EBC703D3E90023FBF7B2F835
:1051500037F00602F1D1022F25D0042F13D0062FED
:1051600018BFBDE8F0812A463346FBF74AF9D4E977
:105170000A23FBF79FF82A463346FBF742F9D4E9A6
:105180000823FBF797F82A463346FBF73AF9D4E9A8
:105190000623FBF78FF82A463346FBF732F9D4E9AA
:1051A0000423FBF787F82A463346FBF72AF9D4E9AC
:1051B0000223FBF77FF82A463346FBF722F9D4E9AE
:1051C0000023BDE8F041FBF775B80122FBF72EBBC9
:1051D000FBF770B80022134610461146FBF7B7BA2A
:1051E000024A00201107FBF721BB000001FDFFFF71
:1051F00002E008C8121F08C1002AFAD170477047A0
:10520000002001E001C1121F002AFBD170470000FD
:105210000149086070470000F80100202DE9F04DB9
:105220008D4F21F0004A86B005460C46BA452ADB70
:10523000AAEB070028430AD08848824501DC1AD12E
:10524000CDB106B02846BDE8F04DFFF7BEBF844A99
:10525000844B2846FBF7D5F807460E46824A834B17
:1052600028462146FBF7CDF806B03A463346BDE85E
:10527000F04DFBF71FB80120FFF7CAFF06B0BDE8ED
:10528000F04DFFF7A7BF7A48824542DABAF1795F5D
:105290000BDA2846FFF733FE042808BFFFF7A0FF0C
:1052A000284606B02146BDE8F08D2A460B4610463A
:1052B000FBF7A7F8834602466E480E460B460621CA
:1052C0007844FFF72DFF5A463346FBF79AF880469D
:1052D00069488A465A46334604217844FFF720FF3E
:1052E0005A463346FBF78DF800223B46FAF7E2FFB9
:1052F00002460B4640465146FBF729FA2A4623460A
:10530000FBF77FF806B02A462346BDE8F04DFAF7D2
:10531000D1BF284624F0004100223D463B46FBF722
:105320006DF84FF0FF32FBF781FA0646024653480C
:105330000F460B4606217844FFF7F2FE32463B4605
:10534000FBF75FF8CDE900014D4832463B460421AA
:105350007844FFF7E5FE32463B46FBF752F8002261
:105360002B46FAF7A7FF834602913046394600F0F4
:10537000D1FA804643480D46504517DCDDE900016F
:105380005A46029BFBF7E3F942462B46FBF739F8F6
:1053900042462B46FAF78EFF0122FBF747FA304AC6
:1053A000304BFBF728F8304A304B4CE04FF0000A06
:1053B00052460B464046FAF77DFFCDE903105246B0
:1053C0002B4610461946FBF71CF832463B46FBF7C6
:1053D00015F8DDE90332FBF7BAF906460F46DDE9B9
:1053E00000015A46029BFBF7B2F983460091012265
:1053F00030463946FBF71AFA194A1A4BFAF7FEFFFC
:1054000006460F46012240462946FBF70FFA5A4648
:10541000009BFAF7F6FF32463B46FAF7ECFF0646EA
:105420000F46012250462946FBF700FA0E4DDFF8E1
:1054300058802A464346FAF7E1FF32463B46FAF7E0
:10544000DDFF2A464346FAF7D9FF002CD8BF81F08A
:10545000004106B0BDE8F08D0000F03F0000F07F95
:10546000075C143326A6913C182D4454FB21F93FC8
:105470000000E03FA40B0000BA0B00002E0B000060
:10548000440B00003333EF3FFB21E93F2DE9F84F98
:1054900004460D4621F0004000917349814211DC21
:1054A0007249884201DC06D12CB120462946BDE86C
:1054B000F84FFFF78ABE6E48002DCCBF6D496E498C
:1054C000BDE8F88F6D49814211DD6D498142D8BF39
:1054D0004FF0FF366DDD20462946FFF710FD04280A
:1054E00008BFFFF77DFE20462946BDE8F88F6549D5
:1054F000654F25F00045814233DD6449814219DD65
:10550000002632464FF0804320462946FAF7D2FE65
:1055100080468A46012220462946FBF787F9002269
:105520003B46FAF768FF42465346FBF710F904463C
:105530000D463EE001260022BA463B46204629465B
:10554000FAF7B8FE80460F46002253462046294609
:10555000FAF751FF42463B46FBF7F9F804460D4681
:1055600027E04B4981421BDDDFF828A102260022FB
:10557000534620462946FAF744FF00223B46FAF7F5
:1055800099FE80460F460022534620462946FAF7E8
:1055900032FF42463B46FBF7DAF804460D4608E088
:1055A000032622462B4600203B49FBF7D0F8044651
:1055B0000D4622462B4610461946FAF722FF8B4627
:1055C000824602460B46FAF71CFF0746024633485E
:1055D00088460B4606217844FFF7A2FD52465B46FB
:1055E000FAF70FFF82462E488B463A46434605217E
:1055F0007844FFF795FD3A464346FAF702FF024624
:105600000B46002E504659460CDAFAF753FE224656
:105610002B46FAF7F6FE01B022462B46BDE8F04FC6
:10562000FAF7ECBEFAF746FE22462B46FAF7E9FEF9
:105630001C4A7A4402EBC603D3E90023FAF7DBFEE7
:1056400022462B46FAF7D7FE174A7A4402EBC603E6
:10565000D3E90023FAF7D2FE009A002AB8BF81F0FE
:105660000041BDE8F88F0000000010440000F07F0A
:10567000182D4454FB21F93FFB21F9BF0000DC3F0A
:105680000000203E0000F33F0000F03F0000E63F36
:10569000008003400000F83F0000F0BF4609000012
:1056A00004090000A20800006A0800002DE9F04D7E
:1056B0009446CCF1000423F000464CEA0404524F17
:1056C00046EAD4749A46884621F00042BC4206D885
:1056D000454240EA050442EAD474BC4204D9BDE81C
:1056E000F04D6246FFF774BDAAF14055A5F17F6504
:1056F00055EA0C040BD0022404EAAA74434DDFF8E7
:1057000010E144EAD87452EA000B04D00CE0BDE882
:10571000F04DFFF7BBBE002C14BF012CBDE8F08D8F
:10572000022C30D0032C32D056EA0C0B0AD0BE42E9
:1057300020D1BA4209D126F0804622F08042334679
:10574000114617E000291ADB25E0DFF8C8B0FB445A
:10575000002C04BFDBE90001BDE8F08D012C02BF85
:10576000DBE9000181F00041BDE8F08D022C0AD098
:10577000032C0CD0BA4212D1B8F1000F0BDA234837
:105780002549BDE8F08D28462449BDE8F08D28461E
:105790007146BDE8F08D1D482149BDE8F08D921B92
:1057A00012153C2AC4BF19481D490EDCBAF1000F7E
:1057B000BEBF12F13C0F0020014606DB6246FAF73D
:1057C000C6FF21F00041FFF761FE002C08BFBDE8D5
:1057D000F08D012C04BF81F00041BDE8F08D114A2D
:1057E000114B022C07D0FAF706FE2A46BDE8F04D11
:1057F0000A4BFAF700BEFAF7FEFD2A46BDE8F04D67
:10580000064BFAF7FBBD00000000F07F182D445452
:10581000FB2109C0FE070000FB21F9BFFB21094065
:10582000FB21F93F075C143326A6A13C00BF011EF3
:10583000A0F10102D0B2FAD17047000010B5FEF716
:105840009FFC4FF4FA70FFF7EDF8FDF7D5FB40F23F
:10585000E7314820FFF7A6F840F2E7314820FFF78C
:1058600001F940F2E7314820FFF734F84FF4E13115
:105870004820FFF78DF9FDF780FF16A0FFF728FB02
:10588000FEF780FB28210420FDF780FEFDF7FCFEDB
:10589000FDF7F6FBFDF77EFBFDF79CF9FCF768FBD7
:1058A000FCF7ECFBFCF702FCFCF718FC0D480E497A
:1058B00008600E4908600E480B4908610B490861F1
:1058C0000C480D4908604FF07C500861FCF7EAFF76
:1058D00010BD00000D0A313AB3F5CABCBBAF0D0ACA
:1058E000000000000000C0406404002044040020C8
:1058F000CDCC4C3E0000204184040020FFF79EFFE9
:105900000348008840F001000149088000BFFEE71D
:10591000000400402DE9F04106460F46FAF79DFFCE
:10592000041E0D4618BF0120284320F00040C0F19E
:105930007F6000F1E040C00F0ED0301C18BF012086
:10594000384320F00040C0F17F6000F1E040C00F1C
:1059500004BF0120FFF75CFC20462946BDE8F0812A
:105960000EB59848008800F00200002844D0964800
:105970000088D8B9012094490880924824300088D2
:10598000924908800020ADF800000220ADF8020026
:105990000120ADF804000020ADF80600ADF80800C5
:1059A000694688481038FEF7AFFE25E08648008833
:1059B000012821D1002084490880824824300088B1
:1059C000834908800020ADF80000ADF802000120F6
:1059D000ADF804000020ADF80600ADF808006946F7
:1059E00078481038FEF790FE794800887749098892
:1059F000401A00B2774948807248008800F00400DD
:105A0000002845D074480088D8B901207249088020
:105A10006C4828300088714908800420ADF80000E7
:105A20000220ADF802000120ADF804000020ADF81E
:105A30000600ADF80800694662481038FEF764FEBB
:105A400026E065480088012822D1002062490880AC
:105A50005C4828300088624908800420ADF80000C6
:105A60000020ADF802000120ADF804000020ADF8E0
:105A70000600ADF80800694652481038FEF744FEAB
:105A80005748008855490988401A00B25149088092
:105A90004C48008800F00800002845D05148008894
:105AA000D8B901204F49088046482C3000884E491B
:105AB00008800820ADF800000220ADF802000120A7
:105AC000ADF804000020ADF80600ADF80800694606
:105AD0003C481038FEF718FE26E0424800880128AE
